H01EXPRESS0000382NX    UM00X20000020000000000X0         5833                   19770813        QYMNAB1 ROQ_00005931_3194                    36                  
A01ANTHONY M PONCE JR         390 AMHERST ST                         BLACKFOOT      ID832212769           1301 S                                                
A02                           5175 N FELAND AVE UNIT 129             FRESNO         CA937115909           1110 S                                                
H01EXPRESS0000498NX    UH00X20000030000000000X0         5371                   19900105        QYMNAB1 ROQ_00013042_3195                    24                  
A01HOMERO CASTRO              5721 CANARY DR                         NORTH HIGHLANDSCA956604757           1401 D                                                
A02                           3500 DATE DRIVE 364                    RANCHO CORDOVA CA95670               1305 S                                                
A03                           7610 VICTORY AVE                       SACRAMENTO     CA958285228           1209 S                                                
H01EXPRESS0000382NX    UM00X20000020000000000X0         5626                   19820414        QYMNAB1 ROQ_00001869_3196                    31                  
A01MARY THAVIXAY              6010 VILLAGE GREEN DR                  STOCKTON       CA952103483           1401 D                                                
A02                           532 S PILGRIM ST APT 16                STOCKTON       CA952056163           1308 S                                                
H01EXPRESS0000382NX    UM00X20000020000000000X0         9169                   19450604        QYMNAB1 SANO_00001368_339                    68                  
A01CARMELO DIAZ               2190 S OLD US 41                       VINCENNES      IN4759153248951490812 1312 S                                                
A02                           PO BOX 840                             VINCENNES      IN475910840           1302 S                                                
H01EXPRESS0000150NX    UN00X20000000000000000X0                                                QYMNAB1 GRA_00020725_14781                   00                  
H01EXPRESS0000382NX    UM00X20000020000000000X0         7753                   19910000        QYMNAB1 GRA_00014099_14782                   23                  
A01MELODY I SIMONS            9819 JONES CREEK RD                    DITTMER        MO630232237           1402 S                                                
A02                           1100 N SAINT JOE DR APT 34             PARK HILLS     MO636011959           1312 S                                                
H01EXPRESS0000150NX    UN00X20000000000000000X0                                                QYMNAB1 GRA_00060622_14783                   00                  
H01EXPRESS0000498NX    UH00X20000030000000000X0         7583                   19651230        QYMNAB1 MOY_00024087_7686                    48                  
A01CAROLE WAGEMANS            410 STATE ST APT 20                    BROOKLYN       NY112171739           0407 S                                                
A02                           281 DEVOE ST                           BROOKLYN       NY112112654           0403 S                                                
A03                           34 8TH AVE APT 2B                      NEW YORK       NY100141808           0512 S                                                
H01EXPRESS0000498NX    UH00X20000030000000000X0         4938                   19781019        QYMNAB1 MOY_00021553_7687                    35                  
A01LASHANDA D WEBSTER         1580 E NEW YORK AVE APT 1C             BROOKLYN       NY112126809           1309 S                                                
A02                           361 LIVONIA AVE APT 11E                BROOKLYN       NY112127225           0801 S                                                
A03                           1580 E NEW YORK 4 C AVE                BROOKLYN       NY11212               1210 S                                                
H01EXPRESS0000498NX    UH00X20000030000000000X0         8119                   19410505        QYMNAB1 MOY_00020114_7688                    72                  
A01JAHANARA CHOWDHURY         1590 MADISON AVE APT 9B                NEW YORK       NY1002938894541184646 1102 S                                                
A02                           3211 AVENUE I APT 7S                   BROOKLYN       NY112103923           0811 S                                                
A03                           35 E 106TH ST APT 8P                   NEW YORK       NY100294421           1003 S                                                
H01EXPRESS0000382NX    UH00X20000020000000000X0         2531                   19760000        QYMNAB1 MOY_00022405_7689                    38                  
A01RON BENJAMIN               1178 EASTERN PKWY APT 5C               BROOKLYN       NY112136147           0608 S                                                
A02                           23 PRIMROSE AVE W                      WHITE PLAINS   NY106071712           0501 S                                                
H01EXPRESS0000498NX    UH00X20000030000000000X0         7438                   19460710        QYMNAB1 MOY_00031418_7690                    67                  
A01EUGUENY KOROLKOV           837 NEILL AVE APT 3M                   BRONX          NY104623042           0706 S                                                
A02                           1640 OCEAN AVE APT 1G                  BROOKLYN       NY112304918           0401 S                                                
A03                           2180 HOLLAND AVE APT 3M                BRONX          NY104621745           9901 S                                                
H01EXPRESS0000382NX    UH00X20000020000000000X0         5638                   19660000        QYMNAB1 MOY_00005182_7691                    48                  
A01TERRILYN L BENNETT         285 ALBANY AVE APT 5B                  BROOKLYN       NY112133550           0812 S                                                
A02                           311 LINCOLN AVE # 3B                   BROOKLYN       NY112083016           0407 S                                                
H01EXPRESS0000266NX    UH00X20000010000000000X0         5079                   19650000        QYMNAB1 MOY_00020145_7692                    49                  
A01NADEEM AHMAD               2010 NEWKIRK AVE APT 4B                BROOKLYN       NY112269202           0208 S                                                
H01EXPRESS0000498NX    UH00X20000030000000000X0         4426                   19570111        QYMNAB1 MOY_00031858_7693                    57                  
A01ISMAIL ALHUSSINI           PO BOX 22463                           BROOKLYN       NY112022463           0908 S                                                
A02                           333 86TH ST APT 3G                     BROOKLYN       NY112095031           0709 S                                                
A03                           710 4TH AVE # R4                       BROOKLYN       NY112321222           0504 S                                                
H01EXPRESS0000498NX    UH00X20000030000000000X0         9952                   19760000        QYMNAB1 MOY_00001441_7694                    38                  
A01FELISA JAMISON             56A PINE ST                            BINGHAMTON     NY139013007           1401 D                                                
A02                           65 TOMPKINS AVE APT 1F                 BROOKLYN       NY112065614           1102 S                                                
A03                           735 GARDEN ST                          BRONX          NY104571912           0610 S                                                
H01EXPRESS0000498NX    UH00X20000030000000000X0         8667                   19460801        QYMNAB1 MOY_00020296_7695                    67                  
A01HAROLD DAMBROT             106 SAGAMORE DR                        PLAINVIEW      NY118031524           1211 S                                                
A02                           198 8TH AVE APT 2R                     BROOKLYN       NY112152633           0612 S                                                
A03                           1912 FLATBUSH AVE                      BROOKLYN       NY112104801           0204 S                                                
H01EXPRESS0000266NX    UV00X20000010000000000X0         0160                   19111111        QYMNAB1 MOY_00004073_7696                    10                  
A01JAMAL D HACG               PO BOX 100612                          BROOKLYN       NY112100612           0610 S                                                
H01EXPRESS0000266NX    UV00X20000010000000000X0         4097                   19730000        QYMNAB1 MOY_00019950_7697                    41                  
A01ANDREW G MCGARRELL         19 KENILWORTH PL # 4B                  BROOKLYN       NY112102327           1402 B                                                
H01EXPRESS0000498NX    UH00X20000030000000000X0         2429                   19910516        QYMNAB1 MOY_00004054_7698                    22                  
A01ASHLEY A COLLINS           118 N HOWARD ST APT 322                BALTIMORE      MD212013429           1401 D                                                
A02                           6515 BELCREST RD                       HYATTSVILLE    MD207822010           1305 S                                                
A03                           321 E SHERIDAN ST APT 104              DANIA BEACH    FL330045572           1305 S                                                
H01EXPRESS0001194NX    UM00X20000090000000000X0         2439                   19600000        QYMNAB1 COBY_00021201_86074                  54                  
A01DORE S PERLER              9400 SW 49TH PL                        COOPER CITY    FL333283407           1402 K                                                
A02                           10871 NW 52ND ST                       SUNRISE        FL333518082           1002 K                                                
A03                           7300 W MCNAB RD STE 117                TAMARAC        FL333215329           0807 K                                                
A04                           4503 NW 103RD AVE                      SUNRISE        FL333517981           0302 K                                                
A05                           11 27TH AVE                            VENICE         CA902914325           0201 K                                                
A06                           11500 NW 32ND MNR                      SUNRISE        FL333231341           0011 K                                                
A07                           940 SW 49TH PL                         COOPER CITY    FL33328               9803 K                                                
A08                           3500 PELHAM RD APT 75                  GREENVILLE     SC296154146           9710 K                                                
A09                           602 NW 132ND TER                       PLANTATION     FL333252160           9611 K                                                
H01EXPRESS0000150NX    UN00X20000000000000000X0                                                QYMNAB1 COBY_00389990_86075                  00                  
H01EXPRESS0000150NX    UN00X20000000000000000X0                                                QYMNAB1 COBY_00363031_86076                  00                  
H01EXPRESS0000150NX    UN00X20000000000000000X0                                                QYMNAB1 COBY_00404333_86077                  00                  
H01EXPRESS0000150NX    UN00X20000000000000000X0                                                QYMNAB1 COBY_00271488_86078                  00                  
H01EXPRESS0000730NX    UX00X20000050000000000X0         1774                   19420000        QYMNAB1 COBY_00298431_86079                  72                  
A01ALFRED L DOWDELL           54 VAUX WAY                            NEWNAN         GA302636239           1104 K                                                
A02                           102 WILLOWCREEK RD                     LAGRANGE       GA302413561           1009 K                                                
A03                           PO BOX 296                             NEWNAN         GA302640296           0803 K                                                
A04                           PO BOX 517                             LAGRANGE       GA302410009           0309 K                                                
A05                           RR 1 BOX 283                           THOMASVILLE    GA31792               9512 K                                                
H01EXPRESS0000150NX    UN00X20000000000000000X0                                                QYMNAB1 COBY_00113175_86080                  00                  
H01EXPRESS0000266NX    UV00X20000010000000000X0         4454                   19470000        QYMNAB1 COBY_00064547_86081                  67                  
A01BONNIE M PERRY             134 NW BERKELEY AVE                    PORT ST LUCIE  FL349863594           0902 S                                                
H01EXPRESS0000266NX    UV00X20000010000000000X0         8990                   19731031        QYMNAB1 COBY_00246057_86082                  40                  
A01MARISOL HIOTT              404 SW 2ND ST APT 44                   DEERFIELD BEACHFL334413245           0903 S                                                
H01EXPRESS0000150NX    UN00X20000000000000000X0                                                QYMNAB1 COBY_00340952_86083                  00                  
H01EXPRESS0000266NX    UV00X20000010000000000X0         2506                   19810000        QYMNAB1 COBY_00028555_86084                  33                  
A01MAYA M MCCOY               1115 KENNEBEC ST APT 4C                OXON HILL      MD207453328           1210 S                                                
H01EXPRESS0000498NX    UM00X20000030000000000X0         6189                   19740000        QYMNAB1 COBY_00262084_86085                  40                  
A01JOSHUA T LAVERTY           911 BEEHLER ST                         OWOSSO         MI4886725324724209989 1402 B                                                
A02                           74342 COTTONWOOD DR                    TWENTYNINE PALMCA922773518           1310 K                                                
A03                           4392 PARSONS RD                        INDIAN HEAD    MD206404420           1304 K                                                
H01EXPRESS0000382NX    UX00X20000020000000000X0         3984                   19920000        QYMNAB1 COBY_00106868_86086                  22                  
A01DEVIN E FISHEL             24 W POTOMAC ST APT 1                  WILLIAMSPORT   MD217951032           1311 K                                                
A02                           17532 BAKERSVILLE RD                   BOONSBORO      MD217132309           1301 K                                                
H01EXPRESS0000266NX    UV00X20000010000000000X0         8500                   19770524        QYMNAB1 COBY_00221197_86087                  36                  
A01CHRIS D RATLIFF            35 ACORN CIR APT 101                   BALTIMORE      MD212863723           1103 S                                                
H01EXPRESS0000266NX    UV00X20000010000000000X0         1598                   19850916        QYMNAB1 COBY_00189283_86088                  28                  
A01TIERRA L MARSHALL          3 DEVERAUX CT APT 102                  BALTIMORE      MD212072238           1308 S                                                
H01EXPRESS0000150NX    UN00X20000000000000000X0                                                QYMNAB1 COBY_00044319_86089                  00                  
H01EXPRESS0000382NX    UM00X20000020000000000X0         0922                   19710000        QYMNAB1 COBY_00018371_86090                  43                  
A01ALISON A MACK              112 KEITH CT                           RADCLIFF       KY401608799           1307 K                                                
A02                           107 KEITH CT                           RADCLIFF       KY401608799           1212 K                                                
H01EXPRESS0000150NX    UN00X20000000000000000X0                                                QYMNAB1 COBY_00278349_86091                  00                  
H01EXPRESS0000150NX    UN00X20000000000000000X0                                                QYMNAB1 COBY_00082490_86092                  00                  
H01EXPRESS0000266NX    UV00X20000010000000000X0         4243                   19700606        QYMNAB1 COBY_00268831_86093                  43                  
A01JAVIER DIAZ                4571 SW 127TH CT                       MIAMI          FL331754605           1402 S                                                
H01EXPRESS0000150NX    UN00X20000000000000000X0                                                QYMNAB1 COBY_00403397_86094                  00                  
H01EXPRESS0000150NX    UN00X20000000000000000X0                                                QYMNAB1 COBY_00163222_86095                  00                  
H01EXPRESS0000498NX    UM00X20000030000000000X0         6895                   19661103        QYMNAB1 COBY_00360289_86096                  47                  
A01FAUSTO A ROSALES           13007 SW 87TH AVE                      MIAMI          FL331765901           1209 S                                                
A02                           7565 SW 152 AVEF 210 MIAMI             MIAMI          FL33193               1310 S                                                
A03                           7565 SW 152ND AVE APT F210             MIAMI          FL331933290           0602 S                                                
H01EXPRESS0000614NX    UM00X20000040000000000X0         6945                   19610000        QYMNAB1 COBY_00000963_86097                  53                  
A01JOSEPH A COLEMAN           105 BAY HILL DR                        SIMPSONVILLE   SC296814380           1402 K                                                
A02                           741 WOODRUFF RD                        GREENVILLE     SC296073586           1306 K                                                
A03                           211 AUTUMNWOOD WAY                     SIMPSONVILLE   SC296814465           1209 K                                                
A04                           10 CAPEWOOD RD APT 150                 SIMPSONVILLE   SC296802702           1205 K                                                
H01EXPRESS0000150NX    UN00X20000000000000000X0                                                QYMNAB1 COBY_00400166_86098                  00                  
H01EXPRESS0000382NX    UM00X20000020000000000X0         9309                   19590408        QYMNAB1 COBY_00270346_86099                  54                  
A01ADRIAN TINDALL             315 E ST                               LAKE WALES     FL3385331352238187863 1307 S                                                
A02                           4616 KIMBALL CT                        ZEPHYRHILLS    FL335427139           0710 S                                                
H01EXPRESS0000150NX    UN00X20000000000000000X0                                                QYMNAB1 COBY_00024652_86100                  00                  
H01EXPRESS0000150NX    UN00X20000000000000000X0                                                QYMNAB1 COBY_00269901_86101                  00                  
H01EXPRESS0000150NX    UN00X20000000000000000X0                                                QYMNAB1 COBY_00236989_86102                  00                  
H01EXPRESS0000266NX    UV00X20000010000000000X0         8662                   19490214        QYMNAB1 COBY_00186101_86103                  64                  
A01DIXIE PARKS                2914 W 64TH ST APT 2                   CHICAGO        IL606292782           1402 S                                                
H01EXPRESS0000382NX    UM00X20000020000000000X0         1695                   19760419        QYMNAB1 COBY_00370559_86104                  37                  
A01TIARRA JACKSON             8543 WINTER OAKS LN APT 104            CHARLOTTE      NC282105592           1401 D                                                
A02                           2506 WHITEHALL ESTATES DR              CHARLOTTE      NC282737869           1108 S                                                
H01EXPRESS0000382NX    UM00X20000020000000000X0         2418                   19721218        QYMNAB1 COBY_00410740_86105                  41                  
A01LATOYA ROBERTS             2440 BARGE RD SW                       ATLANTA        GA303315251           1212 S                                                
A02                           PO BOX 593                             MABLETON       GA301260593           1206 S                                                
H01EXPRESS0000382NX    UM00X20000020000000000X0         6708                   19640000        QYMNAB1 COBY_00407875_86106                  50                  
A01SABRINA R RENDER           1365 LING DR                           AUSTELL        GA301685849           1402 K                                                
A02                           PO BOX 1285                            MABLETON       GA301261004           1210 K                                                
H01EXPRESS0000382NX    UM00X20000020000000000X0         4488                   19720000        QYMNAB1 COBY_00410634_86107                  42                  
A01RANDEE J OTTINGER          7341 N COUNTY ROAD 300 W               LIZTON         IN461499464           1311 K                                                
A02                           PO BOX 56                              NORTH SALEM    IN461650056           1004 K                                                
H01EXPRESS0000614NX    UM00X20000040000000000X0         6376                   19910000        QYMNAB1 COBY_00062444_86108                  23                  
A01KENDRA D NEALIS            78 LONGFELLOW LN                       GREENFIELD     IN461403154           1402 K                                                
A02                           14737 ALNWICK LN                       NOBLESVILLE    IN460624662           1303 K                                                
A03                           373 LIONS CREEK CIR                    NOBLESVILLE    IN460628751           1303 K                                                
A04                           13233 ASHVIEW DR                       FISHERS        IN460387433           1205 K                                                
H01EXPRESS0000382NX    UM00X20000020000000000X0         3690                   19830000        QYMNAB1 COBY_00084034_86109                  31                  
A01JENNIFER D EDWARDS         362 HUNTER RIDGE DR                    MARSHALL       NC287538266           1402 S                                                
A02                           151 WEAVERVILLE RD APT 45              ASHEVILLE      NC288041272           1208 S                                                
H01EXPRESS0001310NX    UX00X20000100000000000X0         2636                   19770000        QYMNAB1 ALEGR_00008349_4099                  37                  
A01JOSHUA D JOHNSON           3416 CENTER AVE                        RICHMOND       CA9480432112364934510 1402 B                                                
A02                           D W AVENUE E 12                        LANCASTER      CA93534               1311 K                                                
A03                           502 W AVENUE J12                       LANCASTER      CA935344956           1303 K                                                
A04                           415 E AVENUE J9                        LANCASTER      CA935354076           1209 K                                                
A05                           44110 CAROLSIDE AVE                    LANCASTER      CA935353533           1106 K                                                
A06                           45487 FOXTON AVE                       LANCASTER      CA935351811           0905 K                                                
A07                           43315 GADSDEN AVE APT 523              LANCASTER      CA935346128           0701 K                                                
A08                           44710 DIVISION ST                      LANCASTER      CA935352517           0610 K                                                
A09                           MR 44710 DIVISION ST APT               LANCASTER      CA93535               0607 K                                                
A10                           1953 VAN NESS ST                       SAN PABLO      CA948063620           0605 K                                                
H01EXPRESS0000730NX    UM00X20000050000000000X0         9321                   19780000        QYMNAB1 ALEGR_00012977_4100                  36                  
A01JAMYHA MARTINEZ            29133 US HIGHWAY 58                    BARSTOW        CA923119799           1402 K                                                
A02                           3600 SWENSON ST APT 366                LAS VEGAS      NV891693914           1306 K                                                
A03                           2995 MOUNTAIN AVE APT 12               SAN BERNARDINO CA924047019           1303 K                                                
A04                           7862 LANKERSHIM AVE APT 121            HIGHLAND       CA923464011           1204 K                                                
A05                           7526 1/2 VALARIA DR                    HIGHLAND       CA923463452           0910 K                                                
H01EXPRESS0000150NX    UN00X20000000000000000X0                                                QYMNAB1 HOR2_00001087_972                    00                  
H01EXPRESS0000266NX    UV00X20000010000000000X0                                                QYMNAB1 HOR2_00005564_973                    00                  
A01BRUCE K HOMAN              2600 CEDAR ST                          MILLVILLE      NJ083329437           0907 S                                                
H01EXPRESS0000150NX    UN00X20000000000000000X0                                                QYMNAB1 HOR2_00004044_974                    00                  
H01EXPRESS0000150NX    UN00X20000000000000000X0                                                QYMNAB1 HOR2_00002885_975                    00                  
H01EXPRESS0000498NX    UM00X20000030000000000X0         3892                   19790306        QYMNAB1 HOR2_00005650_976                    34                  
A01NICK F COLOMBO             980 CHESTNUT ST                        CHICO          CA959286032           1209 S                                                
A02                           10322 SHASTA BLVD                      LOS MOLINOS    CA960559636           1110 S                                                
A03                           1853 NORMAL AVE                        CHICO          CA959287038           1004 S                                                
H01EXPRESS0000150NX    UN00X20000000000000000X0                                                QYMNAB1 HOR2_00007436_979                    00                  
H01EXPRESS0000150NX    UN00X20000000000000000X0                                                QYMNAB1 HOR2_00000781_980                    00                  
H01EXPRESS0000150NX    UN00X20000000000000000X0                                                QYMNAB1 HOR2_00005450_981                    00                  
H01EXPRESS0001078NX    UX00X20000080000000000X0         2382                   19480000        QYMNAB1 HOR2_00001244_982                    66                  
A01CHARLES VANPAEMEL          299 S PATENCIO RD APT 5                PALM SPRINGS   CA922626347           1402 K                                                
A02                           306 MAIN ST                            CHESTER        CA96020               1106 K                                                
A03                           132 GOOSE BAY VIEW TRL                 CHESTER        CA960209737           1104 K                                                
A04                           PO BOX 1688                            CHESTER        CA960201688           0602 K                                                
A05                           1235 WHITE OAK DR                      SANTA ROSA     CA954096136           0204 K                                                
A06                           950 STEPHENSON HWY                     TROY           MI480831113           0203 K                                                
A07                           1402 MARINER WAY                       SANTA ROSA     CA954077370           9706 K                                                
A08                           145 GROSSE PINES DR                    ROCHESTER HILLSMI483091829           9702 K                                                
H01EXPRESS0000614NX    UM00X20000040000000000X0         7796                   19480000        QYMNAB1 HOR2_00005383_983                    66                  
A01THERESA G DEROVEN          1705 YOSEMITE AVE                      SAN FRANCISCO  CA941242621           1401 K                                                
A02                           1703 YOSEMITE AVE                      SAN FRANCISCO  CA941242621           1307 K                                                
A03                           944 MARKET ST                          SAN FRANCISCO  CA941024000           0906 K                                                
A04                           1701 YOSEMITE AVE                      SAN FRANCISCO  CA941242621           0606 K                                                
H01EXPRESS0000498NX    UM00X20000030000000000X0         9984                   19580929        QYMNAB1 HOR2_00005229_984                    55                  
A01MICHAEL A EDWARDS          101 W OHIO ST                          INDIANAPOLIS   IN462041906           1112 S                                                
A02                           4012 E MICHIGAN ST                     INDIANAPOLIS   IN462013618           1105 S                                                
A03                           3515 DUBARRY CT                        INDIANAPOLIS   IN462266044           1004 S                                                
H01EXPRESS0000150NX    UN00X20000000000000000X0                                                QYMNAB1 HOR2_00001634_985                    00                  
H01EXPRESS0000150NX    UN00X20000000000000000X0                                                QYMNAB1 HOR2_00006106_986                    00                  
H01EXPRESS0000498NX    UH00X20000030000000000X0         4522                   19810615        QYMNAB1 NIME_00005452_3088                   32                  
A01ROBERT C JOHNSON           PO BOX 184                             ARLINGTON HTS  IL600060184       847 1402 B                                                
A02                           2166 N DOGWOOD LN                      PALATINE       IL600741342           1310 S                                                
A03                           1248 PICADILLY LN                      BRENTWOOD      CA945135168           1309 S                                                
H01EXPRESS0000498NX    UH00X20000030000000000X0         2132                   19900000        QYMNAB1 NIME_00000010_3089                   24                  
A01DORNIKA N GUIDRY           240 ARCADIA ST                         PARK FOREST    IL604661436           1402 B                                                
A02                           2544 RICHMOND CT                       LAFAYETTE      IN479055066           1308 S                                                
A03                           10210 RIDGELAND AVE APT C1             CHICAGO RIDGE  IL604152802           1207 S                                                
H01EXPRESS0000498NX    UM00X20000030000000000X0         4705                   19830529        QYMNAB1 NIME_00010014_3092                   30                  
A01KENYATTA SALEEM            2045 GEORGETOWN LN APT 210             WAUKEGAN       IL600851658           1402 D                                                
A02                           1730 GOLF RD APT 101                   WAUKEGAN       IL600873819           1312 S                                                
A03                           10056 HOLLY LN APT 2W                  DES PLAINES    IL600161401           1105 S                                                
H01EXPRESS0000382NX    UM00X20000020000000000X0         6874                   19880000        QYMNAB1 NIME_00007356_3125                   26                  
A01BREIA A ANTHONY            30505 SANDHURST DR APT 207             ROSEVILLE      MI4806677024912372586 1312 B                                                
A02                           PO BOX A3413                           CHICAGO        IL606903413           1309 S                                                
H01EXPRESS0000498NX    UH00X20000030000000000X0         9014                   19830515        QYMNAB1 NIME_00001561_3126                   30                  
A01NOEL HUMPHREY              12112 S NORMAL AVE                     CHICAGO        IL606286310           1402 B                                                
A02                           7134 S YATES BLVD                      CHICAGO        IL606492530           1310 S                                                
A03                           207 E 42ND ST APT 1E                   CHICAGO        IL606534858           1109 S                                                
H01EXPRESS0000498NX    UH00X20000030000000000X0         7481                   19850000        QYMNAB1 NIME_00011843_3127                   29                  
A01KRISTINA KING              1926 PRAIRIE SQ APT 314                SCHAUMBURG     IL601734134           1402 B                                                
A02                           1102 WESTOVER LN APT 1B                SCHAUMBURG     IL601933438           1101 S                                                
A03                           145 OLIVER CT APT F                    SCHAUMBURG     IL601934060           0510 S                                                
H01EXPRESS0000498NX    UH00X20000030000000000X0         0317                   19871116        QYMNAB1 NIME_00011554_3128                   26                  
A01DONALD C BRUNSON           2 NORTHERN VIEW CIR APT 307            DEKALB         IL601158593           1303 S                                                
A02                           950 CROSS CREEK DR N APT BB2           ROSELLE        IL601723657           1305 S                                                
A03                           52 W NORTH AVE                         CORTLAND       IL601124095           1312 S                                                
H01EXPRESS0000150NX    UN00X20000000000000000X0                                                QYMNAB1 NIME_00011111_3129                   00                  
H01EXPRESS0000498NX    UH00X20000030000000000X0         3169                   19820000        QYMNAB1 NIME_00010184_3130                   32                  
A01RALPH H PARKS JR           6140 S DREXEL AVE APT 205              CHICAGO        IL606372671           1401 D                                                
A02                           7111 S LUELLA AVE APT 1                CHICAGO        IL606492511           1308 S                                                
A03                           7111 S LESLIE AV 1                     CHICAGO        IL60649               1308 S                                                
H01EXPRESS0000266NX    UV00X20000010000000000X0         2490                   19810531        QYMNAB1 NIME_00005612_3131                   32                  
A01SABRINA JUNIOUS            1809 E 71ST PL APT BSMT                CHICAGO        IL606492150           1402 S                                                
H01EXPRESS0000498NX    UM00X20000030000000000X0         4578                   19730318        QYMNAB1 NIME_00000938_3132                   40                  
A01CHERLYN WILLIAMS           1835 S 16TH AVE                        BROADVIEW      IL601552014           1402 S                                                
A02                           2229 S 22ND AVE                        BROADVIEW      IL601553802           1302 S                                                
A03                           2229 S 25TH AVE APT 1E                 BROADVIEW      IL601553849           0703 S                                                
H01EXPRESS0000498NX    UM00X20000030000000000X0         5520                   19870110        QYMNAB1 NIME_00000576_3133                   27                  
A01FELICIA ALFORD             12225 VINCENNES RD                     BLUE ISLAND    IL604061471           1306 S                                                
A02                           510 INGRAHAM AVE                       CALUMET CITY   IL604092733           1309 S                                                
A03                           7259 S CORNELL AVE                     CHICAGO        IL606492802           1307 S                                                
H01EXPRESS0000498NX    UH00X20000030000000000X0         7987                   19871019        QYMNAB1 NIME_00012080_3134                   26                  
A01JESSICA Y HARRIS           2117 S 11TH AVE                        MAYWOOD        IL601533115           1311 S                                                
A02                           3717 W ARTHINGTON ST APT 2             CHICAGO        IL606244040           1310 S                                                
A03                           21173 11 TH AVE                        MAYWOOD        IL60153               1305 S                                                
H01EXPRESS0000498NX    UH00X20000030000000000X0         1041                   19870627        QYMNAB1 NIME_00001311_3135                   26                  
A01SHAQUITA L BENSON          271 N ALBANY AVE APT 405               CHICAGO        IL606121875           1311 S                                                
A02                           4112 W 21ST ST                         CHICAGO        IL606232833           1312 S                                                
A03                           5336 W MADISON ST # 2                  CHICAGO        IL606444263           1309 S                                                
H01EXPRESS0000382NX    UM00X20000020000000000X0         1312                   19580000        QYMNAB1 LINAR_00015343_4480                  56                  
A01FREDY PERALTA              9339 SYLMAR AVE APT 24                 PANORAMA CITY  CA914026912           1306 K                                                
A02                           14501 TUPPER ST UNIT 11                PANORAMA CITY  CA914021444           1203 K                                                
H01EXPRESS0000150NX    UN00X20000000000000000X0                                                QYMNAB1 LINAR_00014470_4481                  00                  
H01EXPRESS0000614NX    UM00X20000040000000000X0         8993                   19410000        QYMNAB1 LINAR_00007365_4482                  73                  
A01JAMES GILL                 PO BOX 5512                            RICHMOND       CA948050512           1401 K                                                
A02                           2121 NEVIN AVE APT A                   RICHMOND       CA948013376           1401 K                                                
A03                           2122 MEVIN AVE APT A                   RICHMOND       CA94805               1401 K                                                
A04                           2119 NEVIN AVE APT B                   RICHMOND       CA948013377           0905 K                                                
H01EXPRESS0000962NX    UM00X20000070000000000X0         3334                   19870000        QYMNAB1 LINAR_00002792_4483                  27                  
A01RENEE BROUSSEAU            17329 S DENKER AVE APT D               GARDENA        CA902475360           1205 K                                                
A02                           9372 ALDERBURY ST                      CYPRESS        CA906302807           0906 K                                                
A03                           4825 E LOS COYOTES DIAGONAL # 1        LONG BEACH     CA908152828           0709 K                                                
A04                           801 REDONDO AVE APT 302                LONG BEACH     CA908045152           0810 K                                                
A05                           4826 E LOS COYOTES DIAGONAL APT 1      LONG BEACH     CA908152896           0711 K                                                
A06                           14500 MCNAB AVE APT 1507               BELLFLOWER     CA907063349           0601 K                                                
A07                           1222 E 10TH ST APT 3                   LONG BEACH     CA908134988           1010 K                                                
H01EXPRESS0000730NX    UM00X20000050000000000X0         8679                   19640000        QYMNAB1 LINAR_00010907_4484                  50                  
A01JOSE L LEON                13211 SUMMIT CIR                       WESTMINSTER    CA926832115           1112 K                                                
A02                           7311 TEXAS ST                          WESTMINSTER    CA926833824           0105 K                                                
A03                           10792 DALE AVE                         STANTON        CA906802605           9604 K                                                
A04                           10792 DATE ST                          STANTON        CA906803017           9410 K                                                
A05                           16761 VIEWPOINT LN APT 302             HUNTINGTON BEACCA926474783           1207 K                                                
H01EXPRESS0000498NX    UM00X20000030000000000X0         0526                   19910000        QYMNAB1 LINAR_00013797_4485                  23                  
A01NA ILAH MUHAMMAD           1801 14TH ST UNIT 249                  OAKLAND        CA946071565       510 1402 B                                                
A02                           1204 148TH AVE                         SAN LEANDRO    CA945783502           1312 K                                                
A03                           6238 SEMINARY AVE APT 4                OAKLAND        CA946051870           1211 K                                                
H01EXPRESS0000498NX    UX00X20000030000000000X0         7147                   19880000        QYMNAB1 LINAR_00020562_4486                  26                  
A01RICARDO F VELASQUEZ        PO BOX 985                             MARINA         CA939330985           1301 K                                                
A02                           222 MORTIMER LN                        MARINA         CA939333038           1212 K                                                
A03                           1633 LUZERN ST                         SEASIDE        CA939554513           0910 K                                                
H01EXPRESS0000150NX    UN00X20000000000000000X0                                                QYMNAB1 LINAR_00003156_4487                  00                  
H01EXPRESS0000150NX    UN00X20000000000000000X0                                                QYMNAB1 LINAR_00010455_4488                  00                  
H01EXPRESS0000382NX    UM00X20000020000000000X0         6932                   19630530        QYMNAB1 LINAR_00019245_4489                  50                  
A01GHULAM F SULTAN            1072 PARK AVE APT B                    ALAMEDA        CA9450152635217704510 1402 S                                                
A02                           1421 BENTON ST APT E                   ALAMEDA        CA945012449           1005 S                                                
H01EXPRESS0000382NX    UM00X20000020000000000X0         0007                   19910509        QYMNAB1 LINAR_00009610_4490                  22                  
A01WILLIAM L JAITE            35 HERMOSA AVE # 35                    LONG BEACH     CA908026108           1311 S                                                
A02                           1444 PINE AVE APT 3                    LONG BEACH     CA908135644           1307 S                                                
H01EXPRESS0000266NX    UV00X20000010000000000X0         2698                   19881216        QYMNAB1 LINAR_00015944_4491                  25                  
A01ZACHARY PUGMIRE            43360 TENNESSEE AVE                    PALM DESERT    CA922117772           1310 S                                                
H01EXPRESS0000382NX    UM00X20000020000000000X0         9149                   19650412        QYMNAB1 LINAR_00008564_4492                  48                  
A01JULIO HERNANDEZ            13604 1/2 KORNBLUM AVE                 HAWTHORNE      CA902507609           1302 S                                                
A02                           1222 W 97TH ST                         LOS ANGELES    CA900441814           0708 S                                                
H01EXPRESS0001310NX    UX00X20000100000000000X0         3935                   19760000        QYMNAB1 LINAR_00011202_4493                  38                  
A01RAMIRO LOPEZ               4832 LIVE OAK ST                       CUDAHY         CA902015221           1402 B                                                
A02                           4723 CLARA ST                          CUDAHY         CA902015107           1401 K                                                
A03                           4911 ELIZABETH ST                      CUDAHY         CA902015207           1310 K                                                
A04                           4622 1/4 LIVE OAK ST                   CUDAHY         CA902015190           1301 K                                                
A05                           4622 1 SLASH 2 LIVE OAK ST             CUDAHY         CA90201               1106 K                                                
A06                           4622 14 LIVE OAK                       CUDAHY         CA90201               1105 K                                                
A07                           4611 12 LIVE OAK ST                    CUDAHY         CA90201               1004 K                                                
A08                           4645 LIVE OAK ST APT 24                CUDAHY         CA902015161           0708 K                                                
A09                           4611 LIVE OAK ST                       CUDAHY         CA902015111           0409 K                                                
A10                           4611 LIGHT OAK ST                      CUDAHY         CA90201               9905 K                                                
H01EXPRESS0000382NX    UM00X20000020000000000X0         8416                   19740620        QYMNAB1 LINAR_00000803_4494                  39                  
A01THAD M ALSTON              3513 REDWOOD AVE                       LOS ANGELES    CA9006630233905206310 0608 S                                                
A02                           278 ALAMITOS AVE APT 15                LONG BEACH     CA908026701           1301 S                                                
H01EXPRESS0000150NX    UN00X20000000000000000X0                                                QYMNAB1 LINAR_00022016_4495                  00                  
H01EXPRESS0000266NX    UV00X20000010000000000X0         5126                   19650501        QYMNAB1 LINAR_00021703_4496                  48                  
A01JAMES YOUNG                868 POWELL ST                          HOLLISTER      CA950234648           0903 S                                                
H01EXPRESS0000266NX    UV00X20000010000000000X0         8017                   19740211        QYMNAB1 LINAR_00010112_4497                  39                  
A01SEYOUM A KEBEDE            200 FAIRMOUNT AVE APT 104              OAKLAND        CA946115810           1212 S                                                
H01EXPRESS0000382NX    UM00X20000020000000000X0         1596                   19790228        QYMNAB1 LINAR_00004858_4498                  34                  
A01BETRETSIDIK D DAMTEW       1317 ASHBY AVE APT E                   BERKELEY       CA947022448           1112 S                                                
A02                           215 W MACARTHUR BLVD APT 115           OAKLAND        CA946115344           1008 S                                                
H01EXPRESS0000266NX    UV00X20000010000000000X0         2704                   19470000        QYMNAB1 LINAR_00014981_4499                  67                  
A01ROBERTO G OZUNA            35 SILVERWOOD PL                       SALINAS        CA939053609           0910 K                                                
H01EXPRESS0000614NX    UM00X20000040000000000X0         0016                   19610000        QYMNAB1 LINAR_00020136_4500                  53                  
A01ELEANOR B ULANDAY          33012 CORNING CT                       UNION CITY     CA945875537           1111 K                                                
A02                           2060 CENTRAL COUNTY RD                 UNION CITY     CA94587               0808 K                                                
A03                           2620 CENTRAL CT                        UNION CITY     CA945873128           0805 K                                                
A04                           33904 WASHINGTON AVE                   UNION CITY     CA945874338           0712 K                                                
H01EXPRESS0000150NX    UN00X20000000000000000X0                                                QYMNAB1 LINAR_00010466_4501                  00                  
H01EXPRESS0000382NX    UM00X20000020000000000X0         0915                   19860724        QYMNAB1 LINAR_00001109_4502                  27                  
A01VICTORIA A AMOS            5401 RAMPART ST                        HOUSTON        TX770811336           1402 B                                                
A02                           500 LOVERIDGE CIR                      PITTSBURG      CA945655390           1310 S                                                
H01EXPRESS0000498NX    UH00X20000030000000000X0         7297                   19700408        QYMNAB1 LINAR_00008314_4503                  43                  
A01SOLOMON A HAILE            5333 TELEGRAPH AVE APT 326             OAKLAND        CA946091953           1309 S                                                
A02                           1721 4TH AVE APT 22                    OAKLAND        CA946061835           1104 S                                                
A03                           3080 RICHMOND BLVD APT 209             OAKLAND        CA946115801           0804 S                                                
H01EXPRESS0000498NX    UM00X20000030000000000X0         1963                   19790000        QYMNAB1 LINAR_00001326_4504                  35                  
A01DIRAR Y AREGAWI            1231 40TH ST APT 228                   EMERYVILLE     CA946084812           1207 S                                                
A02                           2485 SHORELINE DR APT 310              ALAMEDA        CA945016225           0802 S                                                
A03                           1914 6TH AVE                           OAKLAND        CA946061960           1002 S                                                
H01EXPRESS0000266NX    UV00X20000010000000000X0         0191                   19580602        QYMNAB1 LINAR_00010216_4505                  55                  
A01DOUGLAS KENDRICKS          1447 EXCELSIOR AVE # B                 OAKLAND        CA946021150           0411 S                                                
H01EXPRESS0000150NX    UN00X20000000000000000X0                                                QYMNAB1 LINAR_00020957_4506                  00                  
H01EXPRESS0000150NX    UN00X20000000000000000X0                                                QYMNAB1 LINAR_00015046_4507                  00                  
H01EXPRESS0000730NX    UM00X20000050000000000X0         9604                   19850000        QYMNAB1 LINAR_00013104_4508                  29                  
A01JULIAN L MIRZA             14666 HYDRANGEA WAY                    CANYON COUNTRY CA913871528           1402 K                                                
A02                           29316 HIDDEN OAK PL                    CANYON COUNTRY CA913875906           1307 K                                                
A03                           4440 CASA GRANDE CIR                   CYPRESS        CA906302563           1304 K                                                
A04                           15555 HUNTINGTON VILLAGE LN APT 25     HUNTINGTON BEACCA926473044           1303 K                                                
A05                           3591 QUAIL LAKES DR APT 246            STOCKTON       CA952075287           1202 K                                                
H01EXPRESS0000382NX    UM00X20000020000000000X0         2548                   19730723        QYMNAB1 LINAR_00002552_4509                  40                  
A01JONOTHAN D BOGDAN          501 2ND ST # 70                        HERMOSA BEACH  CA902545221           1402 S                                                
A02                           1110 S CATALINA AVE APT 211            REDONDO BEACH  CA902774931           1311 S                                                
H01EXPRESS0000498NX    UH00X20000030000000000X0         0964                   19720115        QYMNAB1 LINAR_00021025_4510                  42                  
A01DANIEL WASHINGTON          616 S SIERRA VISTA AVE APT E           ALHAMBRA       CA918014517           1309 S                                                
A02                           616 S CIERRA VISTA AVE                 ALHAMBRA       CA91801               1209 S                                                
A03                           3702 PALOMA ST                         LOS ANGELES    CA900112828           1001 S                                                
H01EXPRESS0000150NX    UN00X20000000000000000X0                                                QYMNAB1 LINAR_00004314_4511                  00                  
H01EXPRESS0001310NX    UX00X20000100000000000X0         2197                   19620000        QYMNAB1 LINAR_00014674_4512                  52                  
A01MIGUEL A OLLOA             944 SIMMONS AVE                        LOS ANGELES    CA900224225           1207 K                                                
A02                           735 E 104TH ST                         LOS ANGELES    CA900023252           1111 K                                                
A03                           3140 HILL ST                           HUNTINGTON PARKCA902556426           1001 K                                                
A04                           PO BOX 227370                          LOS ANGELES    CA900227370           0907 K                                                
A05                           1444 S ATLANTIC BLVD APT A-2A          LOS ANGELES    CA900225016           0711 K                                                
A06                           5656 WHITTIER BLVD                     COMMERCE       CA900224106           0506 K                                                
A07                           6129 NORTHSIDE DR APT 6                LOS ANGELES    CA900224545           0410 K                                                
A08                           3540 HILL ST                           HUNTINGTON PARKCA902556513           9601 K                                                
A09                           8681 EVERGREEN AVE APT D               SOUTH GATE     CA902802761           9406 K                                                
A10                           8656 MOUNTAIN VIEW AVE                 SOUTH GATE     CA902802728           9404 K                                                
H01EXPRESS0000266NX    UV00X20000010000000000X0         5646                   19850000        QYMNAB1 LINAR_00003128_4513                  29                  
A01MONICA CALVO               3906 EUGENE DR                         OLIVEHURST     CA959614906           1304 S                                                
H01EXPRESS0000266NX    UV00X20000010000000000X0         4267                   19860329        QYMNAB1 LINAR_00018625_4514                  27                  
A01RIAZ SHAH                  9442 OLIVE ST                          BELLFLOWER     CA907064516           1307 S                                                
H01EXPRESS0000266NX    UV00X20000010000000000X0         7058                   19690405        QYMNAB1 LINAR_00001819_4515                  44                  
A01ALAZAR D BAHTA             1548 13TH AVE                          OAKLAND        CA946064329           1402 B                                                
H01EXPRESS0001310NX    UX00X20000100000000000X0         0271                   19700000        QYMNAB1 LINAR_00004155_4516                  44                  
A01PAMELA CLAYBORN            1937 33RD AVE                          OAKLAND        CA946013021           1309 K                                                
A02                           3380 NORTHWOOD DR UNIT A               CONCORD        CA945204546           1304 K                                                
A03                           3502 BROOKDALE AVE                     OAKLAND        CA946191014           1301 K                                                
A04                           PO BOX 18552                           OAKLAND        CA946190552           1006 K                                                
A05                           834 E 20TH ST # 0                      OAKLAND        CA946062506           0803 K                                                
A06                           3820 DALE PL                           OAKLAND        CA946191746           0710 K                                                
A07                           2522 35TH AVE APT 2                    OAKLAND        CA946013200           0601 K                                                
A08                           225 CROWLEY AVE                        PITTSBURG      CA945654727           9811 K                                                
A09                           3641 CLAYTON RD                        CONCORD        CA945212576           1304 K                                                
A10                           176 TOPSAIL CT                         VALLEJO        CA945917771           1205 K                                                
H01EXPRESS0000498NX    UM00X20000030000000000X0         6463                   19791125        QYMNAB1 LINAR_00012362_4517                  34                  
A01DERIC J MAY                11155 GOLF LINKS RD                    OAKLAND        CA9460557136387609510 1402 B                                                
A02                           2474 CORDOVA ST                        OAKLAND        CA946022105           1105 S                                                
A03                           556 29TH ST APT 1                      OAKLAND        CA946093534           1102 S                                                
H01EXPRESS0000382NX    UM00X20000020000000000X0         6455                   19560625        QYMNAB1 LINAR_00020978_4518                  57                  
A01SAMUEL WALTON III          1119 10TH ST                           OAKLAND        CA946072707           1307 S                                                
A02                           559 16TH ST                            OAKLAND        CA946121515           1212 S                                                
H01EXPRESS0000498NX    UH00X20000030000000000X0         8137                   19861020        QYMNAB1 LINAR_00002198_4519                  27                  
A01MEGERSA D BAYISA           215 W MACARTHUR BLVD APT W             OAKLAND        CA946115360       510 1402 B                                                
A02                           215 W MACARTHUR BLVD APT 328           OAKLAND        CA946115346           1108 S                                                
A03                           215 WAMAHPER BLVD APT 328                             CA94611               1107 S                                                
H01EXPRESS0000266NX    UV00X20000010000000000X0         1813                   19880000        QYMNAB1 LINAR_00005463_4520                  26                  
A01MARVIN DIMAANO             14041 EL PORTAL APT 104                SAN PABLO      CA94806               1312 K                                                
H01EXPRESS0000382NX    UM00X20000020000000000X0         0094                   19750726        QYMNAB1 LINAR_00005555_4521                  38                  
A01RONALD C DOMINIA           1382 47TH AVE                          SAN FRANCISCO  CA941221115           1401 D                                                
A02                           3361 FLEETWOOD DR                      SAN BRUNO      CA940661205           1311 S                                                
H01EXPRESS0000266NX    UV00X20000010000000000X0         9694                                   QYMNAB1 LINAR_00007692_4522                  00                  
A01ARMANDO GONZALEZ           713 W ORANGE AVE                       SOUTH SAN FRANCCA940803111           0605 K                                                
H01EXPRESS0001194NX    UX00X20000090000000000X0         4904                   19540000        QYMNAB1 LINAR_00019805_4523                  60                  
A01MARIO TINOCO               1364 E 49TH ST                         LOS ANGELES    CA900114212           1402 B                                                
A02                           2915 W 12TH ST                         LOS ANGELES    CA900063109           1305 K                                                
A03                           2235 S COCHRAN AVE                     LOS ANGELES    CA900161217           1204 K                                                
A04                           1517 1 SLASH 2 S ARDMORE AVE           LOS ANGELES    CA90006               1204 K                                                
A05                           3350 NORTON AVE                        LYNWOOD        CA902622511           0904 K                                                
A06                           624 S ACACIA AVE                       COMPTON        CA902203703           0605 K                                                
A07                           153 E 75TH ST                          LOS ANGELES    CA900032133           0106 K                                                
A08                           10355 LONG BEACH BLVD APT 10           LYNWOOD        CA902621663           0105 K                                                
A09                           2913 W 12TH ST                         LOS ANGELES    CA900063109           8805 K                                                
H01EXPRESS0000382NX    UM00X20000020000000000X0         8540                   19841028        QYMNAB1 LINAR_00015889_4524                  29                  
A01YANIRA D PRECIADO JR       315 N ASSOCIATED RD APT 1605           BREA           CA928214317           1308 S                                                
A02                           2720 ASSOCIATED RD APT C7              FULLERTON      CA928352900           1107 S                                                
H01EXPRESS0000266NX    UV00X20000010000000000X0         6808                   19601025        QYMNAB1 LINAR_00001285_4525                  53                  
A01CARLOS ARAUJO              3155 GENEVA ST APT 1                   LOS ANGELES    CA900201122           1309 S                                                
H01EXPRESS0000730NX    UM00X20000050000000000X0         4882                   19750000        QYMNAB1 LINAR_00001533_4526                  39                  
A01YIRSAW W ASFAW             4600 COLISEUM ST APT 117               LOS ANGELES    CA900165986           1401 K                                                
A02                           3210 W ADAMS BLVD                      LOS ANGELES    CA900185407           1005 K                                                
A03                           510 S KENMORE AVE APT 103              LOS ANGELES    CA900202518           0809 K                                                
A04                           4555 W MARTIN LUTHER KING 332          LOS ANGELES    CA90016               1212 K                                                
A05                           4160 INGLEWOOD BLVD                    LOS ANGELES    CA900665249           1010 K                                                
H01EXPRESS0000498NX    UM00X20000030000000000X0         1650                   19910818        QYMNAB1 LINAR_00004790_4527                  22                  
A01BRYAN CUENCA               141 W 45TH ST APT C                    LOS ANGELES    CA900372796           1402 S                                                
A02                           1121 W 17TH ST                         LOS ANGELES    CA900153321           1204 S                                                
A03                           831 W 40TH PL                          LOS ANGELES    CA900371902           0908 S                                                
H01EXPRESS0000498NX    UM00X20000030000000000X0         5318                   19671113        QYMNAB1 MARTI_00002526_932                   46                  
A01ROBERT MARTINEZ            671 N 4TH ST                           SAN JOSE       CA951125144           1401 D                                                
A02                           670 N 4TH ST APT 7                     SAN JOSE       CA951125132           1304 S                                                
A03                           470 S 10TH ST                          SAN JOSE       CA951123713           0712 S                                                
H01EXPRESS0000498NX    UM00X20000030000000000X0         4157                   19790123        QYMNAB1 MARTI_00002916_934                   35                  
A01JASON J ORONA              PO BOX 26952                           SAN JOSE       CA951596952           0912 S                                                
A02                           5496 JUDITH ST APT 4                   SAN JOSE       CA951231815           0805 S                                                
A03                           994 COLLEGE DR APT 1                   SAN JOSE       CA951283651           0706 S                                                
H01EXPRESS0000150NX    UN00X20000000000000000X0                                                QYMNAB1 MARTI_00002181_935                   00                  
H01EXPRESS0000498NX    UM00X20000030000000000X0         0354                   19870000        QYMNAB1 MARTI_00001275_936                   27                  
A01CHEZ L FIAAVAE             309 E MAINE LOOP APT 101               NAMPA          ID836866479           1305 S                                                
A02                           2019 W CURLEW ST                       NAMPA          ID836518335           1208 S                                                
A03                           11330 W BRANDI LN                      NAMPA          ID836515045           1203 S                                                
H01EXPRESS0000498NX    UH00X20000030000000000X0         8604                   19730324        QYMNAB1 MARTI_00000562_937                   40                  
A01CESAR G CAMORLINGA         31569 WOLFSKILL AVE                    NUEVO          CA925679431           1207 S                                                
A02                           332 1ST AVE                            REDWOOD CITY   CA940633704           1201 S                                                
A03                           19245 E ELBERLAND ST                   WEST COVINA    CA917922804           1105 S                                                
H01EXPRESS0000498NX    UH00X20000030000000000X0         6125                   19701009        QYMNAB1 MARTI_00003660_938                   43                  
A01BENITO ARTEAGA             3160 CONSUELO RD                       CONCORD        CA945192257           9910 S                                                
A02                           18360 SIERRA DR APT 24                 SONOMA         CA954764340           1304 S                                                
A03                           PO BOX 1561                            BOYES HOT SPRINCA954161561           0207 S                                                
H01EXPRESS0000498NX    UM00X20000030000000000X0         9758                   19090000        QYMNAB1 OSBOR_00004816_1740                  10                  
A01GENEVIEVE LONG             3308 WEDGWOOD ST                       MIDLAND        TX797074707           0303 K                                                
A02                           4716 STOREY AVE                        MIDLAND        TX797035322           9708 K                                                
A03                           5216 TREMONT AVE APT 505               MIDLAND        TX797074129           9403 K                                                
H01EXPRESS0000150NX    0200X20000000000000000X0                                                QYMNAB1 OSBOR_00005566_1741                  00                  
H01EXPRESS0000150NX    UN00X20000000000000000X0                                                QYMNAB1 OSBOR_00004132_1742                  00                  
H01EXPRESS0000498NX    UM00X20000030000000000X0         4315                   19510000        QYMNAB1 OSBOR_00006352_1743                  63                  
A01KATHLEEN FARR              200 WILDFLOWER LN                      KERRVILLE      TX780281784           1312 K                                                
A02                           158 VALLEY VIEW DR                     KERRVILLE      TX780286245           0612 K                                                
A03                           216 VALLEY VIEW DR                     KERRVILLE      TX780286247           0308 K                                                
H01EXPRESS0000498NX    UM00X20000030000000000X0         3556                   19860000        QYMNAB1 CURRI_00000199_350                   28                  
A01ALFREDO O CANTU            1000 N VENTURA AVE                     VENTURA        CA930011704           1401 D                                                
A02                           1553 HOLLY WAY APT C                   POMONA         CA917665471           1306 S                                                
A03                           387 W WOODCREST ST                     RIALTO         CA923767423           1105 S                                                
H01EXPRESS0000614NX    UM00X20000040000000000X0         4890                   19550000        QYMNAB1 ROSER_00002123_1498                  59                  
A01ROSIE ESPINOZA             12121 KERRWOOD ST                      EL MONTE       CA9173220236720039626 1312 B                                                
A02                           12121 1/2 KERRWOOD ST                  EL MONTE       CA917322023           1312 K                                                
A03                           1212 12 KERRWOOD ST                    EL MONTE       CA91732               1312 K                                                
A04                           436 E COVINA BLVD                      COVINA         CA917222827           0803 K                                                
H01EXPRESS0000382NX    UM00X20000020000000000X0         4350                   19540702        QYMNAB1 ROSER_00005790_1499                  59                  
A01MINDA M ROSERO             1716 CONEY ISLAND AVE STE 5R           BROOKLYN       NY112305804           1212 S                                                
A02                           624 MOUNT ST                           POMONA         CA917651938           1107 S                                                
H01EXPRESS0000498NX    UH00X20000030000000000X0         7476                   19690816        QYMNAB1 ROSER_00002737_1500                  44                  
A01ANGELA GREEN               13811 SHOEMAKER AVE APT 119            NORWALK        CA906504533           1310 S                                                
A02                           9963 RAMONA ST APT 29                  BELLFLOWER     CA907067335           1310 S                                                
A03                           PO BOX 4262                            LAKEWOOD       CA907114262           1306 S                                                
H01EXPRESS0000382NX    UM00X20000020000000000X0         2408                   19860501        QYMNAB1 ROSER_00003674_1501                  27                  
A01JOSEPH LOPEZ               13173 BRYSON ST                        ARLETA         CA913314953           1402 B                                                
A02                           9800 VESPER AVE UNIT 12                PANORAMA CITY  CA914021051           1309 S                                                
H01EXPRESS0000498NX    UM00X20000030000000000X0         3368                   19700000        QYMNAB1 ROSER_00002395_1502                  44                  
A01LUIS GALLEGOS              26718 VIA BELLAZZA                     VALENCIA       CA913810638           1305 K                                                
A02                           27621 MARTA LN                         CANYON COUNTRY CA913876595           1205 K                                                
A03                           448 W CASAD ST                         COVINA         CA917232913           1112 K                                                
H01EXPRESS0000382NX    UV00X20000020000000000X0         1795                   19760000        QYMNAB1 ROSER_00005861_1503                  38                  
A01ANA B GONZALEZ             118 E 84TH PL APT 2                    LOS ANGELES    CA900032939           1401 D                                                
A02                           10118 GERALD AVE                       NORTH HILLS    CA913431131           1401 K                                                
H01EXPRESS0000498NX    UM00X20000030000000000X0         9352                   19750000        QYMNAB1 ROSER_00006923_1504                  39                  
A01VERONICA SANCHEZ           1021 LARODA CT                         ONTARIO        CA917626106           1402 B                                                
A02                           15050 MONTE VISTA AVE                  CHINO HILLS    CA917095701           1312 K                                                
A03                           926 W PHILADELPHIA ST UNIT 54          ONTARIO        CA917626239           1103 K                                                
H01EXPRESS0000150NX    UN00X20000000000000000X0                                                QYMNAB1 ROSER_00002845_1505                  00                  
H01EXPRESS0000150NX    UN00X20000000000000000X0                                                QYMNAB1 VAGLE_00014439_1848                  00                  
H01EXPRESS0000730NX    UM00X20000050000000000X0         8882                   19700000        QYMNAB1 VAGLE_00008826_1850                  44                  
A01DONNA E LEE                37250 SEQUOIA CMN APT 3032             FREMONT        CA945361930       510 1402 B                                                
A02                           37250 SEQUOIA CMN APT 1031             FREMONT        CA945361929           1310 K                                                
A03                           1401 RED HAWK CIR # L10                FREMONT        CA945384747           1303 K                                                
A04                           21200 KITTRIDGE ST APT 1103            WOODLAND HILLS CA913033037           1102 K                                                
A05                           305 E YAGER LN APT 914                 AUSTIN         TX787531682           1012 K                                                
H01EXPRESS0000150NX    UN00X20000000000000000X0                                                QYMNAB1 VAGLE_00011115_1851                  00                  
H01EXPRESS0000150NX    UN00X20000000000000000X0                                                QYMNAB1 VAGLE_00001702_1852                  00                  
H01EXPRESS0000498NX    UM00X20000030000000000X0         4136                   19770329        QYMNAB1 VAGLE_00007878_1853                  36                  
A01MARIA C JUGAO              4637 LOMITA ST                         LOS ANGELES    CA900195721           1305 S                                                
A02                           17821 LASSEN ST APT 206                NORTHRIDGE     CA913254708           1301 S                                                
A03                           1555 E JEFFERSON WAY APT 207           SIMI VALLEY    CA930650110           1002 S                                                
H01EXPRESS0000498NX    UM00X20000030000000000X0         9801                   19701203        QYMNAB1 VAGLE_00008333_1854                  43                  
A01SHIRO KOSHIMURA            2623 DELAWARE ST APT D                 HUNTINGTON BEACCA926486538           1310 S                                                
A02                           8955 RIVERBEND DR APT 8                HUNTINGTON BEACCA926475061           0901 S                                                
A03                           1453 E JEFFERSON WAY APT 204           SIMI VALLEY    CA930650164           0812 S                                                
H01EXPRESS0000150NX    UN00X20000000000000000X0                                                QYMNAB1 VAGLE_00013247_1855                  00                  
H01EXPRESS0000266NX    UV00X20000010000000000X0                                19850218        QYMNAB1 VAGLE_00000438_1856                  28                  
A01ABDULLAH ALMANSOUR         21201 KITTRIDGE ST APT 2410            WOODLAND HILLS CA913035010           1111 S                                                
H01EXPRESS0000266NX    UV00X20000010000000000X0         3404                   19841231        QYMNAB1 VAGLE_00002181_1857                  29                  
A01AHMED K BUBSHAIT           21201 KITTRIDGE ST APT 9302            WOODLAND HILLS CA913035043           1202 S                                                
H01EXPRESS0000962NX    UM00X20000070000000000X0         4972                   19820000        QYMNAB1 VAGLE_00012156_1858                  32                  
A01SAMANTHA D PIGGOTT         1890 W HILLCREST DR APT 440            NEWBURY PARK   CA913202352           1306 K                                                
A02                           6835 VALLEY CIRCLE BLVD UNIT 57        WEST HILLS     CA913072864           1211 K                                                
A03                           530 W ADDISON ST APT 321               CHICAGO        IL606134705           1112 K                                                
A04                           6200 DE SOTO AVE APT 32120             WOODLAND HILLS CA913672616           1012 K                                                
A05                           1130 S MICHIGAN AVE APT 1611           CHICAGO        IL606052319           1012 K                                                
A06                           1135 S DELANO CT E APT 315             CHICAGO        IL606053451           1001 K                                                
A07                           11 N VIA EL TORO                       THOUSAND OAKS  CA913206986           0909 K                                                
H01EXPRESS0001310NX    UX00X20000100000000000X0         0458                   19690000        QYMNAB1 VAGLE_00002129_1859                  45                  
A01HEATHER BROWNING           PO BOX 53                              LIBERTY        IN473530053           1402 B                                                
A02                           445 ASHLEY BROOK DR                    HAMILTON       OH450136385           1311 K                                                
A03                           1206 LAKEMONT DR                       SPRINGBORO     OH450668186           1208 K                                                
A04                           5286 W DUNLAPSVILLE RD                 LIBERTY        IN473539191           1201 K                                                
A05                           11508 POEMA PL UNIT 104                CHATSWORTH     CA913111123           1012 K                                                
A06                           1555 E JEFFERSON WAY APT 102           SIMI VALLEY    CA930650123           0807 K                                                
A07                           PO BOX 262                             LIBERTY        IN473530262           0805 K                                                
A08                           22121 ERWIN ST                         WOODLAND HILLS CA913673444           0708 K                                                
A09                           425 SUNSET DR UNIT A                   LIBERTY        IN473538323           0705 K                                                
A10                           17330 BIRCHWOOD LN                     FORT MYERS     FL339086184           0610 K                                                
H01EXPRESS0000382NX    UM00X20000020000000000X0         2607                   19680709        QYMNAB1 VAGLE_00003355_1860                  45                  
A01PRAPASSARA CROOKE          2207 CLOVER ST                         SIMI VALLEY    CA930652646           1402 S                                                
A02                           5405 COCHRAN ST APT 40                 SIMI VALLEY    CA930636586           1003 S                                                
H01EXPRESS0000498NX    UM00X20000030000000000X0         2271                   19800105        QYMNAB1 VAGLE_00014543_1861                  34                  
A01GREG T SPENCE              1550 RORY LN SPC 84                    SANTA SUSANA   CA930637367           1312 S                                                
A02                           1362 VALJEAN AVE                       SIMI VALLEY    CA930654779           1203 S                                                
A03                           1423 MORENO DR                         SIMI VALLEY    CA930633152           1012 S                                                
H01EXPRESS0000150NX    UN00X20000000000000000X0                                                QYMNAB1 VAGLE_00016235_1862                  00                  
H01EXPRESS0000382NX    UM00X20000020000000000X0         9038                   19490223        QYMNAB1 VAGLE_00014908_1863                  64                  
A01EUGENIA SZAJKOWSKA         235 N CONEJO SCHOOL RD APT 121         THOUSAND OAKS  CA913622677           1201 S                                                
A02                           PO BOX 159                             AGOURA HILLS   CA913760159           1204 S                                                
H01EXPRESS0000498NX    UM00X20000030000000000X0         1649                   19760000        QYMNAB1 VAGLE_00005490_1864                  38                  
A01LAXMAREDDY GAVINOLLA       6717 DANNYBOYAR AVE                    WEST HILLS     CA913073408           1309 K                                                
A02                           10025 TOPANGA CANYON BLVD UNIT 106     CHATSWORTH     CA913113687           1206 K                                                
A03                           22234 VICTORY BLVD APT G110            WOODLAND HILLS CA913671810           1008 K                                                
H01EXPRESS0000382NX    UM00X20000020000000000X0         1740                   19771108        QYMNAB1 VAGLE_00005578_1865                  36                  
A01DANIEL C GHIRARD           918 S OXFORD AVE UNIT 213              LOS ANGELES    CA900066355           1311 S                                                
A02                           6100 DE SOTO AVE APT 226               WOODLAND HILLS CA913673764           1305 S                                                
H01EXPRESS0000614NX    UM00X20000040000000000X0         4092                   19910000        QYMNAB1 VAGLE_00008166_1866                  23                  
A01EUNICE H KIM               3333 S DURANGO AVE APT 3               LOS ANGELES    CA900348527           1308 K                                                
A02                           4634 WORTSER AVE                       SHERMAN OAKS   CA914233334           1111 K                                                
A03                           9051 FLORENCE AVE APT F                DOWNEY         CA902403481           1103 K                                                
A04                           2200 COLORADO AVE APT 246              SANTA MONICA   CA904045527           1003 K                                                
H01EXPRESS0000498NX    UM00X20000030000000000X0         3230                   19820000        QYMNAB1 VAGLE_00009745_1867                  32                  
A01BRANDICE MARRYWEATHER      10891 FENTON RD                        MORENO VALLEY  CA925574037           1401 K                                                
A02                           24699 WISTERIA LN                      MORENO VALLEY  CA925574106           1309 K                                                
A03                           12676 MEMORIAL WAY                     MORENO VALLEY  CA925537566           1105 K                                                
H01EXPRESS0000730NX    UM00X20000050000000000X0         7430                   19540000        QYMNAB1 VAGLE_00005303_1868                  60                  
A01SUSAN J GANCARZ            2518 ASHMORE CIR APT 11                THOUSAND OAKS  CA913625758           1309 K                                                
A02                           489 SAVOY RD                           CHESHIRE       MA012259011           1305 K                                                
A03                           2479 VISTA WOOD CIR APT 11             THOUSAND OAKS  CA913625753           1304 K                                                
A04                           1606 HEYWOOD ST APT UNITE              SIMI VALLEY    CA930653555           1304 K                                                
A05                           235 N CONEJO SCHOOL RD APT 118         THOUSAND OAKS  CA913622676           1011 K                                                
H01EXPRESS0000266NX    UV00X20000010000000000X0                                19920000        QYMNAB1 VAGLE_00000482_1869                  22                  
A01EHAB ALNASSAR              19200 NORDHOFF ST UNIT 302             NORTHRIDGE     CA913245179           1207 K                                                
H01EXPRESS0000498NX    UM00X20000030000000000X0         8558                   19530622        QYMNAB1 VAGLE_00007866_1870                  60                  
A01FRANK S JUDGE              3525 SAGE RD APT 1701                  HOUSTON        TX770567197           1304 S                                                
A02                           PO BOX 22596                           HOUSTON        TX772272596           1210 S                                                
A03                           8477 ROAD 228                          TERRA BELLA    CA932709683           0910 S                                                
H01EXPRESS0000150NX    UN00X20000000000000000X0                                                QYMNAB1 VAGLE_00006428_1871                  00                  
H01EXPRESS0000150NX    UN00X20000000000000000X0                                                QYMNAB1 VAGLE_00002706_1872                  00                  
H01EXPRESS0000150NX    UN00X20000000000000000X0                                                QYMNAB1 VAGLE_00009058_1873                  00                  
H01EXPRESS0000150NX    UN00X20000000000000000X0                                                QYMNAB1 VAGLE_00012755_1874                  00                  
H01EXPRESS0000498NX    UM00X20000030000000000X0         0566                   19810125        QYMNAB1 VAGLE_00016460_1875                  33                  
A01BYRON D WILLIAMS II        3005 GREEN MOUNTAIN LN                 BAKERSFIELD    CA933124423           1301 S                                                
A02                           23150 AVENUE SAN LUIS APT 318          WOODLAND HILLS CA913641039           1304 S                                                
A03                           4801 FRUITVALE AVE APT 271             BAKERSFIELD    CA933083961           1203 S                                                
H01EXPRESS0000150NX    UN00X20000000000000000X0                                                QYMNAB1 VAGLE_00008405_1876                  00                  
H01EXPRESS0000150NX    UN00X20000000000000000X0                                                QYMNAB1 VAGLE_00009839_1877                  00                  
H01EXPRESS0000498NX    UH00X20000030000000000X0         9997                   19651015        QYMNAB1 VAGLE_00015456_1878                  48                  
A01NANCY J TURNER             18931 GRANADA CIR                      NORTHRIDGE     CA9132615059235064818 1402 S                                                
A02                           303 FOREST DR                          COLLEGE STA    TX778402079           1208 S                                                
A03                           6203 VARIEL AVE APT 315                WOODLAND HILLS CA913672475           1201 S                                                
H01EXPRESS0000382NX    UM00X20000020000000000X0         0251                   19710206        QYMNAB1 VAGLE_00016614_1879                  42                  
A01LUIS F WONG                7838 TEXHOMA AVE                       NORTHRIDGE     CA913254309           1301 S                                                
A02                           21021 VANOWEN ST APT B211              CANOGA PARK    CA913032895           1112 S                                                
H01EXPRESS0000382NX    UM00X20000020000000000X0         1931                   19681202        QYMNAB1 VAGLE_00009566_1880                  45                  
A01RICHARD MAKHLOUF           1515 E KATELLA AVE UNIT 3167           ANAHEIM        CA9280566979124520714 1210 S                                                
A02                           833 AMERICANA WAY UNIT 305             GLENDALE       CA912101532           0807 S                                                
H01EXPRESS0000498NX    UM00X20000030000000000X0         6828                   19850000        QYMNAB1 VAGLE_00000182_1881                  29                  
A01SAMI AKHAVAN RAD           18324 CLARK ST UNIT 309                TARZANA        CA913563513           1311 K                                                
A02                           6903 N VISTA ST                        SAN GABRIEL    CA917751133           1105 K                                                
A03                           21050 VANOWEN ST APT 128               WOODLAND HILLS CA913033073           0910 K                                                
H01EXPRESS0000498NX    UM00X20000030000000000X0         5067                   19880311        QYMNAB1 VAGLE_00006806_1882                  25                  
A01AARON HENSON               4291 HAVENRIDGE DR                     CORONA         CA928830683           1402 B                                                
A02                           17328 HORACE ST                        GRANADA HILLS  CA913444717           1311 S                                                
A03                           6710 VARIEL AVE APT 450                CANOGA PARK    CA913034808           1306 S                                                
H01EXPRESS0000382NX    UM00X20000020000000000X0         8748                   19710306        QYMNAB1 VAGLE_00015938_1883                  42                  
A01RAMESH VUNNAM              6710 VARIEL AVE APT 235                WOODLAND HILLS CA913034801           1402 S                                                
A02                           9733 TOPANGA CANYON BLVD STE 216       CHATSWORTH     CA913114078           1004 S                                                
H01EXPRESS0000266NX    UV00X20000010000000000X0         2689                   19821105        QYMNAB1 VAGLE_00002332_1884                  31                  
A01ANGEL CALZADA              4804 LAUREL CANYON BLVD                VALLEY VILLAGE CA916073717           1205 S                                                
H01EXPRESS0000498NX    UM00X20000030000000000X0         1989                   19660320        QYMNAB1 VAGLE_00002096_1885                  47                  
A01GUY L BROWN                6280 W 3RD ST APT 406                  LOS ANGELES    CA900363193           1402 S                                                
A02                           9595 WILSHIRE BLVD                     BEVERLY HILLS  CA902122512           1311 S                                                
A03                           21201 KITTRIDGE ST APT 5402            WOODLAND HILLS CA913035025           1204 S                                                
H01EXPRESS0000730NX    UM00X20000050000000000X0         7759                   19810000        QYMNAB1 VAGLE_00004635_1886                  33                  
A01KATHERINE R FELLERS        PO BOX 370712                          RESEDA         CA913370712           1402 K                                                
A02                           1151 AMHERST AVE APT 6                 LOS ANGELES    CA900497801           1312 K                                                
A03                           5901 HANNA AVE                         WOODLAND HILLS CA913674515           1310 K                                                
A04                           5931 RESEDA BLVD APT 120               TARZANA        CA913561523           1305 K                                                
A05                           4337 CLYBOURN AVE                      TOLUCA LAKE    CA916022906           1105 K                                                
H01EXPRESS0000614NX    UM00X20000040000000000X0         6606                   19770000        QYMNAB1 VAGLE_00009862_1887                  37                  
A01ASHISH MATALIA             7081 SALE AVE                          WEST HILLS     CA913072368           1311 K                                                
A02                           22177 BAUHINIA CT                      WOODLAND HILLS CA913677203           1102 K                                                
A03                           6100 DE SOTO AVE APT 433               WOODLAND HILLS CA913673769           1012 K                                                
A04                           21200 KITTRIDGE ST APT 3235            WOODLAND HILLS CA913033051           0903 K                                                
H01EXPRESS0000150NX    UN00X20000000000000000X0                                                QYMNAB1 VAGLE_00006874_1888                  00                  
H01EXPRESS0001194NX    UM00X20000090000000000X0         9675                   19690000        QYMNAB1 VAGLE_00014725_1889                  45                  
A01KATRINA N STOKES           PO BOX 302                             MALO           WA991500302           0904 K                                                
A02                           15 VALLEY HIGH RD                      MALO           WA991509711           0607 K                                                
A03                           22316 BRIER RD                         BRIER          WA980368048           0511 K                                                
A04                           13775 INTERURBAN AVE S                 TUKWILA        WA981685104           0205 K                                                
A05                           1808 MONTEREY AVE NE                   RENTON         WA980562608           0202 K                                                
A06                           11054 NE 33RD PL APT B10               BELLEVUE       WA980041454           9910 K                                                
A07                           2203 S 10TH AVE                        YAKIMA         WA989031334           9206 K                                                
